:1013000022C040C06CC03EC03DC03CC03BC03AC0E3
:1013100039C038C037C036C035C034C033C004030C
:10132000090412011001FF000008D0165307040140
:1013300000000001090212000101008032090400CE
:1013400000000000000011241FBECFE5D2E0DEBF88
:10135000CDBF00EB0F9307E00F9310E0A0E6B0E0E5
:10136000ECE2FFE102C005900D92A836B107D9F773
:1013700011E0A8E6B0E001C01D92A636B107E1F782
:101380001FD3D2C5BDCFA82FB92F80E090E041E098
:1013900050EA609530E009C02D9182279795879596
:1013A00010F084279527305EC8F36F5FA8F3089587
:1013B000EADF8D939D930895A6E088279927AA9543
:1013C00069F00197E1F3B399FCCFB39BFECF81E0C5
:1013D0009927A6B3019611F0A871D9F70895CF9374
:1013E000CFB7CF93C0915F02C03B21F4C0915E02A2
:1013F000C73021F0CF91CFBFCF9181CFCC27C395FC
:10140000B39BE9F7B39B0BC0B39B09C0B39B07C069
:10141000B39B05C0B39B03C0B39B01C0D3C00F9265
:10142000DF93C0914901DD27C05BDE4F012EB39BE6
:1014300003C0DF910F90E6CF2F930F931F934F932D
:101440002FEF4F6F06B303FB20F95F933F9350E0FC
:101450003BE065C016B30126502953FDC89556B32D
:10146000012703FB25F92F7306B3B1F0502710278E
:1014700013FB26F906B22230F0F000C016B30127A4
:1014800003FB27F90126502906B22430E8F54F77EF
:10149000206816B30000F6CF50274F7D206206B2B9
:1014A000102F000000C006B300265029102713FBA0
:1014B00026F906B2E2CF4F7B06B3206400C0DACF34
:1014C00001265029187106B269F14E7F2160012F63
:1014D00016B328C0002650294D7F06B22260102F77
:1014E00029C0012650294B7F06B22460012F2DC050
:1014F00016B301265029477F2860000006B22EC08F
:101500004F7E06B3206130C0422706B349930026C0
:101510005029102706B24FEF13FB20F9297F16B38D
:1015200079F2187159F10126502906B2012703FBFF
:1015300021F9237F06B371F2002650293150D0F0F3
:1015400006B2102713FB22F9277E16B351F20126AB
:101550005029012703FB06B223F92F7C49F2000032
:1015600006B3102713FB24F90026502906B22F7961
:1015700039F270CF10E21ABF002717C03B503195E7
:10158000C31BD04010E21ABF0881033CF9F00B34B2
:10159000E9F0209147011981110F1213EDCF09369F
:1015A00051F10D3211F0013E39F700934E013F9198
:1015B0005F914F911F910F912F91DF910F90CAB7BB
:1015C000C5FD1DCFCF91CFBFCF91189520914E0172
:1015D000222369F310914C01112321F5343022F1BB
:1015E00030934C0120934801109149013BE0311B9D
:1015F0003093490119C000914C0101309CF40AE577
:101600003091600034FD11C000936000CCEFD0E059
:1016100010C0052710E000C021C0052710E0C895C4
:1016200008BB14C03AE501C032ED032EC0E0D0E0A3
:1016300032E017B31861C39A08B317BB58E120E82A
:101640004FEF20FF052708BB279517951C3F28F76C
:1016500000004552B0F720FF0527279508BB1795D6
:101660001C3FB8F629913A9561F7077E10914D011C
:10167000110F08BBC250D04011F01093470110E287
:101680001ABF086017B3177E402F477E54E05A9563
:10169000F1F708BB17BB48BB8ACF9C01E199FECF8D
:1016A0001CBA3FBB2EBB6DBB0FB6F894E29AE19A11
:1016B0000FBE0895B99AC19ABA9AC29A0895C1986C
:1016C000B998C298BA980895382FC19AB99880E00D
:1016D00020E0880F96E19A95F1F7C29AB19981605E
:1016E000C2982F5F2830A9F7B99A332311F0C19A15
:1016F00001C0C198C29A96E19A95F1F7C298C19833
:101700000895482F90E820E030E0892F842311F0DD
:10171000C19A01C0C198C29A86E18A95F1F7C29830
:1017200096952F5F3F4F2830310579F7B998C19AC8
:10173000C29A86B3C298B99AC198869580958170ED
:101740000895C19896E19A95F1F7C298DACFC19AB7
:10175000C29A96E19A95F1F7F4CFC19886E1982F55
:101760009A95F1F7C29A982F9A95F1F7C19A8A95AE
:10177000F1F70895DF92EF92FF920F931F93CF93AB
:10178000DF93F62E172FE42ED52E880FDADF88236D
:10179000B1F0812FB6DF882391F08F2DB2DF88233F
:1017A00071F08E2D9D2D9C01E90110E003C08991FF
:1017B000A8DF1F5F1017D8F3D0DF81E001C080E001
:1017C000DF91CF911F910F91FF90EF90DF900895DF
:1017D000FF920F931F93CF93DF938B01F42E880F0B
:1017E000B0DF882309F1812F8CDF8823E9F0802F77
:1017F00088DF8823C9F0C0E0D0E00EC09E012F5BD7
:10180000822F7FDF8091680090916900019690930C
:1018100069008093680021968F2D90E0C817D90742
:1018200068F39BDF81E001C080E0DF91CF911F91E1
:101830000F91FF900895CF92DF92EF92FF920F9356
:101840001F93CF93DF93182FF62E072FE42ED52E5C
:10185000C22E880F76DF882339F1802F52DF88234C
:1018600019F18F2D4EDF8823F9F0110F812F816040
:101870006EDF8823C9F08E2D9D2D9C01E90110E0BB
:101880000EC040E0212F30E08C2D90E0019728170A
:10189000390709F441E0842F17DF89931F5F1C1576
:1018A00080F35BDF81E001C080E0DF91CF911F9189
:1018B0000F91FF90EF90DF90CF90089581E080939B
:1018C0007200F894E091FA00F091FB00329785E005
:1018D00080935700E89507B600FCFDCF78940895F3
:1018E0009C01E091FA00F091FB00309749F1E4305F
:1018F000F105B1F082E1EC3FF80739F42091F600F0
:101900003091F7002E57394F0DC082E1EE3FF807B6
:1019100049F42091F8003091F9002D57394F02C059
:101920002FE739ECF89481E0090180935700E8959E
:10193000112478943296F093FB00E093FA00089516
:1019400081E180935700E895EBCF8FEF9FEFC8DFE1
:101950008091FA009091FB008F739070892BA9F70A
:10196000ADCF0F931F93DF93CF9300D0CDB7DEB7EA
:10197000182F8AE090E09A83898360916F007091BC
:10198000700020916D0030916E0080E547E051E0DD
:10199000012FF0DE60916F0070917000610F711D7A
:1019A0007093700060936F00CE0101964DE45BE090
:1019B000A6D20F900F90CF91DF911F910F910895B4
:1019C000DF93CF9300D00F92CDB7DEB7D1B688E1C9
:1019D0000FB6F89481BD11BC0FBEE0E0F0E0859138
:1019E00094918F57994C39F4E4E0F0E0859194910B
:1019F0008F57994C09F0A9DF1092FB001092FA0062
:101A000059DEB89AAC9A8BB780628BBFBB9A88E8D4
:101A100093E1ECE9F1E03197F1F70197D1F7BB9849
:101A2000789400914C01035007FD4BC1809149010E
:101A30009CE0E92EF12CE81AF108E0E5F1E0EE0E69
:101A4000FF1E809148018D3209F0CEC0083009F0A8
:101A500036C183EC8093FC008AE58093600010928D
:101A6000F500D7018C91807611969C91882309F41A
:101A700055C010926B0010926A00992341F482E6DF
:101A800090E090934B0180934A0196E0A2C0913080
:101A900041F4F701848195819093FB008093FA00D3
:101AA0008BC0923021F480917100816033C09330FB
:101AB00011F5D70112966D917C91139788EE93E002
:101AC000861B970B8138910510F090E804C098EEC2
:101AD000961B09F47EC003E710E080E5A801292FDA
:101AE0009B83A9DE10934B0100934A019B819F3F8A
:101AF00009F462C06EC0943031F48091710080624C
:101B00008093710059C080917100953011F480610B
:101B100001C084608093710090E05BC0F701228176
:101B200010920501992331F41092060125E031E06D
:101B300092E03DC0953019F420934D0135C09630A8
:101B400019F5D70113968C91813019F482E293E153
:101B500004C0823041F484E393E190934B0180937D
:101B60004A0192E10DC0833051F4222341F48EE109
:101B700093E190934B0180934A0194E001C090E07F
:101B800080E48093F50025C0983019F42FE431E00B
:101B900009C0993019F420934F0106C09A3021F4FE
:101BA00025E031E091E003C025E031E090E03093A2
:101BB0004B0120934A010DC0F701808187FD02C0CF
:101BC0002FEF03C0D70116962C9180E88093F50083
:101BD00008C0F7018781882319F42681291708F0A6
:101BE000292F209361006BC08091F50087FF67C0AB
:101BF0008091F300813069F510E019C0F901E95FC7
:101C0000FE4FD7018C918083C901019690936E009D
:101C100080936D008034910531F480E4A2DE10924F
:101C20006E0010926D001F5F0894E11CF11C209162
:101C30006D0030916E00101708F3F901EA5FFE4F56
:101C400080818930E1F5822F81508BDE1092F30084
:101C500036C08091FA009091FB00009741F4F701A3
:101C6000808191819093F7008093F6000EC08430BC
:101C7000910541F4D7018D919C919093F900809347
:101C8000F80003C08050934158F4F701808191819E
:101C900027DE025029F082E090E0E80EF91ED9CF4D
:101CA0008091FA009091FB008F739070892B39F42A
:101CB0008091710082608093710010926100109297
:101CC0004C018091600084FF3CC0809161008F3F97
:101CD000C1F1082F893008F008E0801B8093610073
:101CE0008091FC0098E889278093FC000023E1F0B4
:101CF000E0914A01F0914B018091F50086FF09C007
:101D0000902FADEFB0E084918D9331969150D9F73B
:101D100007C0902FADEFB0E081918D939150E1F726
:101D2000F0934B01E0934A018DEF90E0602F40DB90
:101D3000602F6C5F6C3019F08FEF809361006093BF
:101D4000600094E186B3887131F49150D9F7109214
:101D50004D011092470100E0992309F401E08091C0
:101D6000F400801739F0002319F4F89489D078949E
:101D70000093F4008CE991E00197F1F780916A00FB
:101D800090916B00019690936B0080936A00809114
:101D90007100182F80FF14C0F894E0E0F3E1E054E4
:101DA000F04083E080935700E89507B600FCFDCF34
:101DB0003097A9F71092FB001092FA00C6DD7894D4
:101DC00011FF0FC08AE390E20197F1F78091FA00CA
:101DD0009091FB008F739070892B11F0B6DD01C0DC
:101DE0006DDD14FF16C08AE090E09A83898310921B
:101DF0006E0010926D0081E08093F30010927000ED
:101E000010926F00CE01019660E070E04DE45BE05F
:101E100076D080917100982F83FF03C081E080937A
:101E20006C0092FD0FC01092710080916A00909139
:101E30006B00885A914608F4F4CD80916C00882399
:101E400009F0EFCD3CDC80E886BD81E086BD03C0B3
:101E500081B7815081BF81B7D816D0F382E291EA71
:101E60000197F1F7F8941BBE15BA10925F02109219
:101E70005E0244CA0F900F900F90CF91DF910895AA
:101E8000FF920F931F93CF93DF9380E8F82E00E02B
:101E9000C0E0D0E0102F1F0D11BF8EDA29E084338F
:101EA00092070CF0102FF6942196C830D10511F04E
:101EB000012FF0CF115011BF1F5F012FEC0110C097
:101EC0007BDA8453994097FF03C0909581959F4F8B
:101ED0008C179D0714F401B7EC0181B78F5F81BFA8
:101EE00021B730E0812F90E001968217930744F7E5
:101EF00001BFDF91CF911F910F91FF900895DF9265
:101F0000EF92FF920F931F93D72E7A018C01FA0163
:101F10000995C80101966D2DF70109951F910F9143
:0C1F2000FF90EF90DF900895F894FFCF41
:081F2C005AFF12FC40060002FE
:0400000300001300E6
:00000001FF
